{
  "abi": [
    {
      "inputs": [],
      "stateMutability": "nonpayable",
      "type": "constructor"
    },
    {
      "anonymous": false,
      "inputs": [
        {
          "indexed": true,
          "internalType": "bytes32",
          "name": "role",
          "type": "bytes32"
        },
        {
          "indexed": true,
          "internalType": "bytes32",
          "name": "previousAdminRole",
          "type": "bytes32"
        },
        {
          "indexed": true,
          "internalType": "bytes32",
          "name": "newAdminRole",
          "type": "bytes32"
        }
      ],
      "name": "RoleAdminChanged",
      "type": "event"
    },
    {
      "anonymous": false,
      "inputs": [
        {
          "indexed": true,
          "internalType": "bytes32",
          "name": "role",
          "type": "bytes32"
        },
        {
          "indexed": true,
          "internalType": "address",
          "name": "account",
          "type": "address"
        },
        {
          "indexed": true,
          "internalType": "address",
          "name": "sender",
          "type": "address"
        }
      ],
      "name": "RoleGranted",
      "type": "event"
    },
    {
      "anonymous": false,
      "inputs": [
        {
          "indexed": true,
          "internalType": "bytes32",
          "name": "role",
          "type": "bytes32"
        },
        {
          "indexed": true,
          "internalType": "address",
          "name": "account",
          "type": "address"
        },
        {
          "indexed": true,
          "internalType": "address",
          "name": "sender",
          "type": "address"
        }
      ],
      "name": "RoleRevoked",
      "type": "event"
    },
    {
      "inputs": [],
      "name": "DEFAULT_ADMIN_ROLE",
      "outputs": [
        {
          "internalType": "bytes32",
          "name": "",
          "type": "bytes32"
        }
      ],
      "stateMutability": "view",
      "type": "function"
    },
    {
      "inputs": [],
      "name": "EMPLOYEE_ROLE",
      "outputs": [
        {
          "internalType": "bytes32",
          "name": "",
          "type": "bytes32"
        }
      ],
      "stateMutability": "view",
      "type": "function"
    },
    {
      "inputs": [],
      "name": "EMPLOYER_ROLE",
      "outputs": [
        {
          "internalType": "bytes32",
          "name": "",
          "type": "bytes32"
        }
      ],
      "stateMutability": "view",
      "type": "function"
    },
    {
      "inputs": [
        {
          "internalType": "address",
          "name": "account",
          "type": "address"
        }
      ],
      "name": "addressToString",
      "outputs": [
        {
          "internalType": "string",
          "name": "",
          "type": "string"
        }
      ],
      "stateMutability": "pure",
      "type": "function"
    },
    {
      "inputs": [
        {
          "internalType": "uint256",
          "name": "_taskID",
          "type": "uint256"
        }
      ],
      "name": "approveCompletedTask",
      "outputs": [],
      "stateMutability": "nonpayable",
      "type": "function"
    },
    {
      "inputs": [
        {
          "internalType": "uint256",
          "name": "",
          "type": "uint256"
        }
      ],
      "name": "approvedTask",
      "outputs": [
        {
          "internalType": "bool",
          "name": "",
          "type": "bool"
        }
      ],
      "stateMutability": "view",
      "type": "function"
    },
    {
      "inputs": [
        {
          "internalType": "uint256",
          "name": "_taskID",
          "type": "uint256"
        }
      ],
      "name": "assignTask",
      "outputs": [],
      "stateMutability": "nonpayable",
      "type": "function"
    },
    {
      "inputs": [
        {
          "internalType": "uint256",
          "name": "_taskID",
          "type": "uint256"
        },
        {
          "internalType": "address",
          "name": "_tokenAddress",
          "type": "address"
        }
      ],
      "name": "claimReward",
      "outputs": [],
      "stateMutability": "nonpayable",
      "type": "function"
    },
    {
      "inputs": [
        {
          "internalType": "uint256",
          "name": "",
          "type": "uint256"
        }
      ],
      "name": "claimedReward",
      "outputs": [
        {
          "internalType": "bool",
          "name": "",
          "type": "bool"
        }
      ],
      "stateMutability": "view",
      "type": "function"
    },
    {
      "inputs": [
        {
          "internalType": "uint256",
          "name": "",
          "type": "uint256"
        }
      ],
      "name": "claimedTask",
      "outputs": [
        {
          "internalType": "bool",
          "name": "",
          "type": "bool"
        }
      ],
      "stateMutability": "view",
      "type": "function"
    },
    {
      "inputs": [
        {
          "internalType": "uint256",
          "name": "rewardAmount",
          "type": "uint256"
        }
      ],
      "name": "createTask",
      "outputs": [],
      "stateMutability": "nonpayable",
      "type": "function"
    },
    {
      "inputs": [
        {
          "internalType": "uint256",
          "name": "_taskID",
          "type": "uint256"
        }
      ],
      "name": "getClaimer",
      "outputs": [
        {
          "internalType": "address",
          "name": "",
          "type": "address"
        }
      ],
      "stateMutability": "view",
      "type": "function"
    },
    {
      "inputs": [
        {
          "internalType": "bytes32",
          "name": "role",
          "type": "bytes32"
        }
      ],
      "name": "getRoleAdmin",
      "outputs": [
        {
          "internalType": "bytes32",
          "name": "",
          "type": "bytes32"
        }
      ],
      "stateMutability": "view",
      "type": "function"
    },
    {
      "inputs": [
        {
          "internalType": "bytes32",
          "name": "role",
          "type": "bytes32"
        },
        {
          "internalType": "address",
          "name": "account",
          "type": "address"
        }
      ],
      "name": "grantRole",
      "outputs": [],
      "stateMutability": "nonpayable",
      "type": "function"
    },
    {
      "inputs": [],
      "name": "grantRoleContractor",
      "outputs": [],
      "stateMutability": "nonpayable",
      "type": "function"
    },
    {
      "inputs": [],
      "name": "grantRoleEmployer",
      "outputs": [],
      "stateMutability": "nonpayable",
      "type": "function"
    },
    {
      "inputs": [
        {
          "internalType": "bytes32",
          "name": "role",
          "type": "bytes32"
        },
        {
          "internalType": "address",
          "name": "account",
          "type": "address"
        }
      ],
      "name": "hasRole",
      "outputs": [
        {
          "internalType": "bool",
          "name": "",
          "type": "bool"
        }
      ],
      "stateMutability": "view",
      "type": "function"
    },
    {
      "inputs": [
        {
          "internalType": "bytes32",
          "name": "role",
          "type": "bytes32"
        },
        {
          "internalType": "address",
          "name": "account",
          "type": "address"
        }
      ],
      "name": "renounceRole",
      "outputs": [],
      "stateMutability": "nonpayable",
      "type": "function"
    },
    {
      "inputs": [
        {
          "internalType": "bytes32",
          "name": "role",
          "type": "bytes32"
        },
        {
          "internalType": "address",
          "name": "account",
          "type": "address"
        }
      ],
      "name": "revokeRole",
      "outputs": [],
      "stateMutability": "nonpayable",
      "type": "function"
    },
    {
      "inputs": [
        {
          "internalType": "address",
          "name": "user",
          "type": "address"
        }
      ],
      "name": "revokeRoleContractor",
      "outputs": [],
      "stateMutability": "nonpayable",
      "type": "function"
    },
    {
      "inputs": [
        {
          "internalType": "address",
          "name": "user",
          "type": "address"
        }
      ],
      "name": "revokeRoleEmployer",
      "outputs": [],
      "stateMutability": "nonpayable",
      "type": "function"
    },
    {
      "inputs": [
        {
          "internalType": "bytes4",
          "name": "interfaceId",
          "type": "bytes4"
        }
      ],
      "name": "supportsInterface",
      "outputs": [
        {
          "internalType": "bool",
          "name": "",
          "type": "bool"
        }
      ],
      "stateMutability": "view",
      "type": "function"
    },
    {
      "inputs": [],
      "name": "taskID",
      "outputs": [
        {
          "internalType": "uint256",
          "name": "",
          "type": "uint256"
        }
      ],
      "stateMutability": "view",
      "type": "function"
    },
    {
      "inputs": [
        {
          "internalType": "uint256",
          "name": "",
          "type": "uint256"
        }
      ],
      "name": "taskIDtoEmployee",
      "outputs": [
        {
          "internalType": "address",
          "name": "",
          "type": "address"
        }
      ],
      "stateMutability": "view",
      "type": "function"
    },
    {
      "inputs": [
        {
          "internalType": "uint256",
          "name": "",
          "type": "uint256"
        }
      ],
      "name": "taskIDtoReward",
      "outputs": [
        {
          "internalType": "uint256",
          "name": "",
          "type": "uint256"
        }
      ],
      "stateMutability": "view",
      "type": "function"
    }
  ],
  "bytecode": {
    "object": "0x6080604052600060025534801561001557600080fd5b506001805561002560003361002a565b6100d6565b6100348282610038565b5050565b6000828152602081815260408083206001600160a01b038516845290915290205460ff16610034576000828152602081815260408083206001600160a01b03851684529091529020805460ff191660011790556100923390565b6001600160a01b0316816001600160a01b0316837f2f8788117e7eff1d82e926ec794901d17c78024a50270940304540a733656f0d60405160405180910390a45050565b611257806100e56000396000f3fe608060405234801561001057600080fd5b50600436106101735760003560e01c80634f035cc9116100de578063b6ef730a11610097578063d587261b11610071578063d587261b14610393578063dd57f1ad146103b6578063e70eb392146103c9578063f0450eb4146103dc57600080fd5b8063b6ef730a14610364578063b85731851461036d578063d547741f1461038057600080fd5b80634f035cc91461029c57806355a9c570146102dd5780635e57966d146103005780636c2441861461032057806391d1485414610349578063a217fddf1461035c57600080fd5b80632a4cab90116101305780632a4cab90146102235780632f2ff15d1461023857806331d669341461024b57806336568abe1461025e5780633e9b347f146102715780634a53b76c1461027957600080fd5b806301ffc9a71461017857806305c78ebc146101a05780631ccd7910146101ce5780631e84bdd3146101d85780632426bb38146101eb578063248a9ca314610200575b600080fd5b61018b610186366004610f7a565b6103ef565b60405190151581526020015b60405180910390f35b6101c06101ae366004610fa4565b60036020526000908152604090205481565b604051908152602001610197565b6101d6610426565b005b6101d66101e6366004610fd9565b6104aa565b6101c06000805160206111e283398151915281565b6101c061020e366004610fa4565b60009081526020819052604090206001015490565b6101c060008051602061120283398151915281565b6101d6610246366004610ff4565b610515565b6101d6610259366004610fa4565b61053f565b6101d661026c366004610ff4565b6105cd565b6101d661064b565b61018b610287366004610fa4565b60056020526000908152604090205460ff1681565b6102c56102aa366004610fa4565b6000908152600460205260409020546001600160a01b031690565b6040516001600160a01b039091168152602001610197565b61018b6102eb366004610fa4565b60076020526000908152604090205460ff1681565b61031361030e366004610fd9565b6106c8565b6040516101979190611044565b6102c561032e366004610fa4565b6004602052600090815260409020546001600160a01b031681565b61018b610357366004610ff4565b6106e4565b6101c0600081565b6101c060025481565b6101d661037b366004610fa4565b61070d565b6101d661038e366004610ff4565b610761565b61018b6103a1366004610fa4565b60066020526000908152604090205460ff1681565b6101d66103c4366004610fd9565b610786565b6101d66103d7366004610ff4565b6107ee565b6101d66103ea366004610fa4565b6109e9565b60006001600160e01b03198216637965db0b60e01b148061042057506301ffc9a760e01b6001600160e01b03198316145b92915050565b61043e6000805160206111e2833981519152336106e4565b156104905760405162461bcd60e51b815260206004820152601d60248201527f43616c6c657220697320616c726561647920616e20656d706c6f79657200000060448201526064015b60405180910390fd5b6104a860008051602061120283398151915233610b0b565b565b6104b56000336106e4565b6104fa5760405162461bcd60e51b815260206004820152601660248201527521b0b63632b91034b9903737ba1030b71030b236b4b760511b6044820152606401610487565b6105126000805160206111e283398151915282610761565b50565b60008281526020819052604090206001015461053081610b15565b61053a8383610b1f565b505050565b6105576000805160206111e2833981519152336106e4565b6105a35760405162461bcd60e51b815260206004820152601960248201527f43616c6c6572206973206e6f7420616e20656d706c6f796572000000000000006044820152606401610487565b600280546000908152600360205260408120839055815491906105c58361108d565b919050555050565b6001600160a01b038116331461063d5760405162461bcd60e51b815260206004820152602f60248201527f416363657373436f6e74726f6c3a2063616e206f6e6c792072656e6f756e636560448201526e103937b632b9903337b91039b2b63360891b6064820152608401610487565b6106478282610ba3565b5050565b610663600080516020611202833981519152336106e4565b156106b05760405162461bcd60e51b815260206004820152601d60248201527f43616c6c657220697320616c726561647920616e20656d706c6f7965650000006044820152606401610487565b6104a86000805160206111e283398151915233610b0b565b60606001600160a01b0382166106dd81610c08565b9392505050565b6000918252602082815260408084206001600160a01b0393909316845291905290205460ff1690565b610725600080516020611202833981519152336106e4565b6107415760405162461bcd60e51b8152600401610487906110a6565b600090815260046020526040902080546001600160a01b03191633179055565b60008281526020819052604090206001015461077c81610b15565b61053a8383610ba3565b6107916000336106e4565b6107d65760405162461bcd60e51b815260206004820152601660248201527521b0b63632b91034b9903737ba1030b71030b236b4b760511b6044820152606401610487565b61051260008051602061120283398151915282610761565b60008281526005602052604090205460ff16156108615760405162461bcd60e51b815260206004820152602b60248201527f54686973207461736b2072657761726473206861766520616c7265616479206260448201526a19595b8818db185a5b595960aa1b6064820152608401610487565b6000828152600560205260409020805460ff19166001179055610892600080516020611202833981519152336106e4565b6108ae5760405162461bcd60e51b8152600401610487906110a6565b60008281526007602052604090205460ff166109225760405162461bcd60e51b815260206004820152602d60248201527f5461736b20636f6d706c6574696f6e206973206e6f7420617070726f7665642060448201526c313c9030903932bb34b2bbb2b960991b6064820152608401610487565b6000828152600360205260409081902054905163a9059cbb60e01b81523360048201526024810182905282906001600160a01b0382169063a9059cbb906044016020604051808303816000875af1158015610981573d6000803e3d6000fd5b505050506040513d601f19601f820116820180604052508101906109a591906110dd565b6109e35760405162461bcd60e51b815260206004820152600f60248201526e151c985b9cd9995c8819985a5b1959608a1b6044820152606401610487565b50505050565b610a01600080516020611202833981519152336106e4565b610a1d5760405162461bcd60e51b8152600401610487906110a6565b600081815260046020526040902054336001600160a01b0390911603610a915760405162461bcd60e51b8152602060048201526024808201527f43616c6c65722069732063616e6e6f7420626520746865207461736b20636c6160448201526334b6b2b960e11b6064820152608401610487565b60008181526007602052604090205460ff1615610af05760405162461bcd60e51b815260206004820152601e60248201527f5461736b2068617320616c7265616479206265656e20617070726f76656400006044820152606401610487565b6000908152600760205260409020805460ff19166001179055565b6106478282610b1f565b6105128133610c9b565b610b2982826106e4565b610647576000828152602081815260408083206001600160a01b03851684529091529020805460ff19166001179055610b5f3390565b6001600160a01b0316816001600160a01b0316837f2f8788117e7eff1d82e926ec794901d17c78024a50270940304540a733656f0d60405160405180910390a45050565b610bad82826106e4565b15610647576000828152602081815260408083206001600160a01b0385168085529252808320805460ff1916905551339285917ff6391f5c32d9c69d2a47ea670b442974b53935d1edc7fd64eb21e047a839171b9190a45050565b60606000610c1583610cf4565b600101905060008167ffffffffffffffff811115610c3557610c356110ff565b6040519080825280601f01601f191660200182016040528015610c5f576020820181803683370190505b5090508181016020015b600019016f181899199a1a9b1b9c1cb0b131b232b360811b600a86061a8153600a8504945084610c6957509392505050565b610ca582826106e4565b61064757610cb281610dcc565b610cbd836020610dde565b604051602001610cce929190611115565b60408051601f198184030181529082905262461bcd60e51b825261048791600401611044565b60008072184f03e93ff9f4daa797ed6e38ed64bf6a1f0160401b8310610d335772184f03e93ff9f4daa797ed6e38ed64bf6a1f0160401b830492506040015b6d04ee2d6d415b85acef81000000008310610d5f576d04ee2d6d415b85acef8100000000830492506020015b662386f26fc100008310610d7d57662386f26fc10000830492506010015b6305f5e1008310610d95576305f5e100830492506008015b6127108310610da957612710830492506004015b60648310610dbb576064830492506002015b600a83106104205760010192915050565b60606104206001600160a01b03831660145b60606000610ded83600261118a565b610df89060026111a1565b67ffffffffffffffff811115610e1057610e106110ff565b6040519080825280601f01601f191660200182016040528015610e3a576020820181803683370190505b509050600360fc1b81600081518110610e5557610e556111b4565b60200101906001600160f81b031916908160001a905350600f60fb1b81600181518110610e8457610e846111b4565b60200101906001600160f81b031916908160001a9053506000610ea884600261118a565b610eb39060016111a1565b90505b6001811115610f2b576f181899199a1a9b1b9c1cb0b131b232b360811b85600f1660108110610ee757610ee76111b4565b1a60f81b828281518110610efd57610efd6111b4565b60200101906001600160f81b031916908160001a90535060049490941c93610f24816111ca565b9050610eb6565b5083156106dd5760405162461bcd60e51b815260206004820181905260248201527f537472696e67733a20686578206c656e67746820696e73756666696369656e746044820152606401610487565b600060208284031215610f8c57600080fd5b81356001600160e01b0319811681146106dd57600080fd5b600060208284031215610fb657600080fd5b5035919050565b80356001600160a01b0381168114610fd457600080fd5b919050565b600060208284031215610feb57600080fd5b6106dd82610fbd565b6000806040838503121561100757600080fd5b8235915061101760208401610fbd565b90509250929050565b60005b8381101561103b578181015183820152602001611023565b50506000910152565b6020815260008251806020840152611063816040850160208701611020565b601f01601f19169190910160400192915050565b634e487b7160e01b600052601160045260246000fd5b60006001820161109f5761109f611077565b5060010190565b60208082526019908201527f43616c6c6572206973206e6f7420616e20656d706c6f79656500000000000000604082015260600190565b6000602082840312156110ef57600080fd5b815180151581146106dd57600080fd5b634e487b7160e01b600052604160045260246000fd5b7f416363657373436f6e74726f6c3a206163636f756e742000000000000000000081526000835161114d816017850160208801611020565b7001034b99036b4b9b9b4b733903937b6329607d1b601791840191820152835161117e816028840160208801611020565b01602801949350505050565b808202811582820484141761042057610420611077565b8082018082111561042057610420611077565b634e487b7160e01b600052603260045260246000fd5b6000816111d9576111d9611077565b50600019019056fefc7c36207174f786648d2e624616a4b40e15fd7f0268b4e36af5057f0c43c8355a3425ea67e73c95853ecfc0c443062de292a303c186bc2aac1178ae1b86c62aa2646970667358221220372a09bb5ff3fdb9e393cbdc829842329a353d845a5e2ff725b64c607e3ec6b264736f6c63430008140033",
    "linkReferences": {}
  },
  "methodIdentifiers": {
    "DEFAULT_ADMIN_ROLE()": "a217fddf",
    "EMPLOYEE_ROLE()": "2a4cab90",
    "EMPLOYER_ROLE()": "2426bb38",
    "addressToString(address)": "5e57966d",
    "approveCompletedTask(uint256)": "f0450eb4",
    "approvedTask(uint256)": "55a9c570",
    "assignTask(uint256)": "b8573185",
    "claimReward(uint256,address)": "e70eb392",
    "claimedReward(uint256)": "4a53b76c",
    "claimedTask(uint256)": "d587261b",
    "createTask(uint256)": "31d66934",
    "getClaimer(uint256)": "4f035cc9",
    "getRoleAdmin(bytes32)": "248a9ca3",
    "grantRole(bytes32,address)": "2f2ff15d",
    "grantRoleContractor()": "1ccd7910",
    "grantRoleEmployer()": "3e9b347f",
    "hasRole(bytes32,address)": "91d14854",
    "renounceRole(bytes32,address)": "36568abe",
    "revokeRole(bytes32,address)": "d547741f",
    "revokeRoleContractor(address)": "dd57f1ad",
    "revokeRoleEmployer(address)": "1e84bdd3",
    "supportsInterface(bytes4)": "01ffc9a7",
    "taskID()": "b6ef730a",
    "taskIDtoEmployee(uint256)": "6c244186",
    "taskIDtoReward(uint256)": "05c78ebc"
  },
  "id": 13
}